{
  "_format": "hh-sol-artifact-1",
  "contractName": "CrowedFunding",
  "sourceName": "contracts/CrowedFunding.sol",
  "abi": [
    {
      "inputs": [],
      "stateMutability": "nonpayable",
      "type": "constructor"
    },
    {
      "inputs": [
        {
          "internalType": "string",
          "name": "_title",
          "type": "string"
        },
        {
          "internalType": "string",
          "name": "_description",
          "type": "string"
        },
        {
          "internalType": "address payable",
          "name": "_recipient",
          "type": "address"
        },
        {
          "internalType": "uint256",
          "name": "_deadline",
          "type": "uint256"
        },
        {
          "internalType": "uint256",
          "name": "_target",
          "type": "uint256"
        }
      ],
      "name": "createRequest",
      "outputs": [],
      "stateMutability": "nonpayable",
      "type": "function"
    },
    {
      "inputs": [
        {
          "internalType": "uint256",
          "name": "_requestNo",
          "type": "uint256"
        }
      ],
      "name": "getRequestBalance",
      "outputs": [
        {
          "internalType": "uint256",
          "name": "",
          "type": "uint256"
        }
      ],
      "stateMutability": "view",
      "type": "function"
    },
    {
      "inputs": [
        {
          "internalType": "uint256",
          "name": "_requestNo",
          "type": "uint256"
        }
      ],
      "name": "makePayment",
      "outputs": [],
      "stateMutability": "nonpayable",
      "type": "function"
    },
    {
      "inputs": [],
      "name": "manager",
      "outputs": [
        {
          "internalType": "address",
          "name": "",
          "type": "address"
        }
      ],
      "stateMutability": "view",
      "type": "function"
    },
    {
      "inputs": [],
      "name": "minContribution",
      "outputs": [
        {
          "internalType": "uint256",
          "name": "",
          "type": "uint256"
        }
      ],
      "stateMutability": "view",
      "type": "function"
    },
    {
      "inputs": [],
      "name": "noOfRequests",
      "outputs": [
        {
          "internalType": "uint256",
          "name": "",
          "type": "uint256"
        }
      ],
      "stateMutability": "view",
      "type": "function"
    },
    {
      "inputs": [
        {
          "internalType": "uint256",
          "name": "_requestNo",
          "type": "uint256"
        }
      ],
      "name": "refund",
      "outputs": [],
      "stateMutability": "nonpayable",
      "type": "function"
    },
    {
      "inputs": [
        {
          "internalType": "uint256",
          "name": "",
          "type": "uint256"
        }
      ],
      "name": "requests",
      "outputs": [
        {
          "internalType": "string",
          "name": "title",
          "type": "string"
        },
        {
          "internalType": "string",
          "name": "description",
          "type": "string"
        },
        {
          "internalType": "address payable",
          "name": "recipient",
          "type": "address"
        },
        {
          "internalType": "uint256",
          "name": "noOfVoters",
          "type": "uint256"
        },
        {
          "internalType": "uint256",
          "name": "noOfContributer",
          "type": "uint256"
        },
        {
          "internalType": "uint256",
          "name": "raisedAmount",
          "type": "uint256"
        },
        {
          "internalType": "uint256",
          "name": "target",
          "type": "uint256"
        },
        {
          "internalType": "uint256",
          "name": "deadline",
          "type": "uint256"
        },
        {
          "internalType": "bool",
          "name": "completed",
          "type": "bool"
        },
        {
          "internalType": "uint256",
          "name": "requestNo",
          "type": "uint256"
        }
      ],
      "stateMutability": "view",
      "type": "function"
    },
    {
      "inputs": [
        {
          "internalType": "uint256",
          "name": "_requestNo",
          "type": "uint256"
        }
      ],
      "name": "sendEth",
      "outputs": [],
      "stateMutability": "payable",
      "type": "function"
    },
    {
      "inputs": [
        {
          "internalType": "uint256",
          "name": "_requestNo",
          "type": "uint256"
        }
      ],
      "name": "voteRequest",
      "outputs": [],
      "stateMutability": "nonpayable",
      "type": "function"
    }
  ],
  "bytecode": "0x608060405234801561001057600080fd5b50336000806101000a81548173ffffffffffffffffffffffffffffffffffffffff021916908373ffffffffffffffffffffffffffffffffffffffff1602179055506064600181905550611944806100686000396000f3fe6080604052600436106100915760003560e01c80635e34461a116100595780635e34461a1461017957806381d12c58146101a2578063aaffadf3146101e8578063c1f11b4c14610213578063cfc548481461023e57610091565b8063278ecde114610096578063481c6a75146100bf5780634cb6f4a5146100ea5780635114cb521461011357806352fd4f161461013c575b600080fd5b3480156100a257600080fd5b506100bd60048036038101906100b89190610f12565b61025a565b005b3480156100cb57600080fd5b506100d46104a2565b6040516100e1919061110e565b60405180910390f35b3480156100f657600080fd5b50610111600480360381019061010c9190610f12565b6104c6565b005b34801561011f57600080fd5b5061013a60048036038101906101359190610f12565b61066e565b005b34801561014857600080fd5b50610163600480360381019061015e9190610f12565b61089c565b6040516101709190611313565b60405180910390f35b34801561018557600080fd5b506101a0600480360381019061019b9190610e6b565b6108c1565b005b3480156101ae57600080fd5b506101c960048036038101906101c49190610f12565b610a60565b6040516101df9a99989796959493929190611129565b60405180910390f35b3480156101f457600080fd5b506101fd610bf1565b60405161020a9190611313565b60405180910390f35b34801561021f57600080fd5b50610228610bf7565b6040516102359190611313565b60405180910390f35b61025860048036038101906102539190610f12565b610bfd565b005b6000600260008381526020019081526020016000209050806007015442116102b7576040517f08c379a00000000000000000000000000000000000000000000000000000000081526004016102ae90611293565b60405180910390fd5b60008054906101000a900473ffffffffffffffffffffffffffffffffffffffff1673ffffffffffffffffffffffffffffffffffffffff163373ffffffffffffffffffffffffffffffffffffffff1614610345576040517f08c379a000000000000000000000000000000000000000000000000000000000815260040161033c906112d3565b60405180910390fd5b600081600b0160003373ffffffffffffffffffffffffffffffffffffffff1673ffffffffffffffffffffffffffffffffffffffff16815260200190815260200160002054116103c9576040517f08c379a00000000000000000000000000000000000000000000000000000000081526004016103c090611253565b60405180910390fd5b60003390508073ffffffffffffffffffffffffffffffffffffffff166108fc83600b0160003373ffffffffffffffffffffffffffffffffffffffff1673ffffffffffffffffffffffffffffffffffffffff168152602001908152602001600020549081150290604051600060405180830381858888f19350505050158015610455573d6000803e3d6000fd5b50600082600b0160003373ffffffffffffffffffffffffffffffffffffffff1673ffffffffffffffffffffffffffffffffffffffff16815260200190815260200160002081905550505050565b60008054906101000a900473ffffffffffffffffffffffffffffffffffffffff1681565b6000600260008381526020019081526020016000209050600081600b0160003373ffffffffffffffffffffffffffffffffffffffff1673ffffffffffffffffffffffffffffffffffffffff1681526020019081526020016000205411610561576040517f08c379a0000000000000000000000000000000000000000000000000000000008152600401610558906112b3565b60405180910390fd5b6000151581600a0160003373ffffffffffffffffffffffffffffffffffffffff1673ffffffffffffffffffffffffffffffffffffffff16815260200190815260200160002060009054906101000a900460ff161515146105f6576040517f08c379a00000000000000000000000000000000000000000000000000000000081526004016105ed906111d3565b60405180910390fd5b600181600a0160003373ffffffffffffffffffffffffffffffffffffffff1673ffffffffffffffffffffffffffffffffffffffff16815260200190815260200160002060006101000a81548160ff02191690831515021790555080600301600081548092919061066590611526565b91905055505050565b60008054906101000a900473ffffffffffffffffffffffffffffffffffffffff1673ffffffffffffffffffffffffffffffffffffffff163373ffffffffffffffffffffffffffffffffffffffff16146106fc576040517f08c379a00000000000000000000000000000000000000000000000000000000081526004016106f390611213565b60405180910390fd5b600060026000838152602001908152602001600020905080600601548160050154101561075e576040517f08c379a000000000000000000000000000000000000000000000000000000000815260040161075590611273565b60405180910390fd5b600015158160080160009054906101000a900460ff161515146107b6576040517f08c379a00000000000000000000000000000000000000000000000000000000081526004016107ad906112f3565b60405180910390fd5b600281600401546107c791906113f6565b81600301541161080c576040517f08c379a0000000000000000000000000000000000000000000000000000000008152600401610803906111f3565b60405180910390fd5b8060020160009054906101000a900473ffffffffffffffffffffffffffffffffffffffff1673ffffffffffffffffffffffffffffffffffffffff166108fc82600601549081150290604051600060405180830381858888f1935050505015801561087a573d6000803e3d6000fd5b5060018160080160006101000a81548160ff0219169083151502179055505050565b6000806002600084815260200190815260200160002090508060050154915050919050565b60008054906101000a900473ffffffffffffffffffffffffffffffffffffffff1673ffffffffffffffffffffffffffffffffffffffff163373ffffffffffffffffffffffffffffffffffffffff161461094f576040517f08c379a000000000000000000000000000000000000000000000000000000000815260040161094690611213565b60405180910390fd5b6000600260006003548152602001908152602001600020905060035481600901819055506003600081548092919061098690611526565b9190505550858160000190805190602001906109a3929190610d36565b50848160010190805190602001906109bc929190610d36565b50838160020160006101000a81548173ffffffffffffffffffffffffffffffffffffffff021916908373ffffffffffffffffffffffffffffffffffffffff1602179055508242610a0c91906113a0565b816007018190555081816006018190555060008160080160006101000a81548160ff021916908315150217905550600081600301819055506000816004018190555060008160050181905550505050505050565b6002602052806000526040600020600091509050806000018054610a83906114c3565b80601f0160208091040260200160405190810160405280929190818152602001828054610aaf906114c3565b8015610afc5780601f10610ad157610100808354040283529160200191610afc565b820191906000526020600020905b815481529060010190602001808311610adf57829003601f168201915b505050505090806001018054610b11906114c3565b80601f0160208091040260200160405190810160405280929190818152602001828054610b3d906114c3565b8015610b8a5780601f10610b5f57610100808354040283529160200191610b8a565b820191906000526020600020905b815481529060010190602001808311610b6d57829003601f168201915b5050505050908060020160009054906101000a900473ffffffffffffffffffffffffffffffffffffffff16908060030154908060040154908060050154908060060154908060070154908060080160009054906101000a900460ff1690806009015490508a565b60015481565b60035481565b6001543411610c41576040517f08c379a0000000000000000000000000000000000000000000000000000000008152600401610c3890611233565b60405180910390fd5b6000600260008381526020019081526020016000209050600081600b0160003373ffffffffffffffffffffffffffffffffffffffff1673ffffffffffffffffffffffffffffffffffffffff168152602001908152602001600020541415610cbf576001816004016000828254610cb791906113a0565b925050819055505b3481600b0160003373ffffffffffffffffffffffffffffffffffffffff1673ffffffffffffffffffffffffffffffffffffffff1681526020019081526020016000206000828254610d1091906113a0565b9250508190555034816005016000828254610d2b91906113a0565b925050819055505050565b828054610d42906114c3565b90600052602060002090601f016020900481019282610d645760008555610dab565b82601f10610d7d57805160ff1916838001178555610dab565b82800160010185558215610dab579182015b82811115610daa578251825591602001919060010190610d8f565b5b509050610db89190610dbc565b5090565b5b80821115610dd5576000816000905550600101610dbd565b5090565b6000610dec610de784611353565b61132e565b905082815260208101848484011115610e0457600080fd5b610e0f848285611481565b509392505050565b600081359050610e26816118e0565b92915050565b600082601f830112610e3d57600080fd5b8135610e4d848260208601610dd9565b91505092915050565b600081359050610e65816118f7565b92915050565b600080600080600060a08688031215610e8357600080fd5b600086013567ffffffffffffffff811115610e9d57600080fd5b610ea988828901610e2c565b955050602086013567ffffffffffffffff811115610ec657600080fd5b610ed288828901610e2c565b9450506040610ee388828901610e17565b9350506060610ef488828901610e56565b9250506080610f0588828901610e56565b9150509295509295909350565b600060208284031215610f2457600080fd5b6000610f3284828501610e56565b91505092915050565b610f4481611439565b82525050565b610f5381611427565b82525050565b610f628161144b565b82525050565b6000610f7382611384565b610f7d818561138f565b9350610f8d818560208601611490565b610f968161162b565b840191505092915050565b6000610fae60178361138f565b9150610fb98261163c565b602082019050919050565b6000610fd1602d8361138f565b9150610fdc82611665565b604082019050919050565b6000610ff460238361138f565b9150610fff826116b4565b604082019050919050565b600061101760298361138f565b915061102282611703565b604082019050919050565b600061103a60278361138f565b915061104582611752565b604082019050919050565b600061105d601e8361138f565b9150611068826117a1565b602082019050919050565b600061108060258361138f565b915061108b826117ca565b604082019050919050565b60006110a3601b8361138f565b91506110ae82611819565b602082019050919050565b60006110c660278361138f565b91506110d182611842565b604082019050919050565b60006110e960278361138f565b91506110f482611891565b604082019050919050565b61110881611477565b82525050565b60006020820190506111236000830184610f4a565b92915050565b6000610140820190508181036000830152611144818d610f68565b90508181036020830152611158818c610f68565b9050611167604083018b610f3b565b611174606083018a6110ff565b61118160808301896110ff565b61118e60a08301886110ff565b61119b60c08301876110ff565b6111a860e08301866110ff565b6111b6610100830185610f59565b6111c46101208301846110ff565b9b9a5050505050505050505050565b600060208201905081810360008301526111ec81610fa1565b9050919050565b6000602082019050818103600083015261120c81610fc4565b9050919050565b6000602082019050818103600083015261122c81610fe7565b9050919050565b6000602082019050818103600083015261124c8161100a565b9050919050565b6000602082019050818103600083015261126c8161102d565b9050919050565b6000602082019050818103600083015261128c81611050565b9050919050565b600060208201905081810360008301526112ac81611073565b9050919050565b600060208201905081810360008301526112cc81611096565b9050919050565b600060208201905081810360008301526112ec816110b9565b9050919050565b6000602082019050818103600083015261130c816110dc565b9050919050565b600060208201905061132860008301846110ff565b92915050565b6000611338611349565b905061134482826114f5565b919050565b6000604051905090565b600067ffffffffffffffff82111561136e5761136d6115fc565b5b6113778261162b565b9050602081019050919050565b600081519050919050565b600082825260208201905092915050565b60006113ab82611477565b91506113b683611477565b9250827fffffffffffffffffffffffffffffffffffffffffffffffffffffffffffffffff038211156113eb576113ea61156f565b5b828201905092915050565b600061140182611477565b915061140c83611477565b92508261141c5761141b61159e565b5b828204905092915050565b600061143282611457565b9050919050565b600061144482611457565b9050919050565b60008115159050919050565b600073ffffffffffffffffffffffffffffffffffffffff82169050919050565b6000819050919050565b82818337600083830152505050565b60005b838110156114ae578082015181840152602081019050611493565b838111156114bd576000848401525b50505050565b600060028204905060018216806114db57607f821691505b602082108114156114ef576114ee6115cd565b5b50919050565b6114fe8261162b565b810181811067ffffffffffffffff8211171561151d5761151c6115fc565b5b80604052505050565b600061153182611477565b91507fffffffffffffffffffffffffffffffffffffffffffffffffffffffffffffffff8214156115645761156361156f565b5b600182019050919050565b7f4e487b7100000000000000000000000000000000000000000000000000000000600052601160045260246000fd5b7f4e487b7100000000000000000000000000000000000000000000000000000000600052601260045260246000fd5b7f4e487b7100000000000000000000000000000000000000000000000000000000600052602260045260246000fd5b7f4e487b7100000000000000000000000000000000000000000000000000000000600052604160045260246000fd5b6000601f19601f8301169050919050565b7f596f75206861766520616c726561647920766f7465642e000000000000000000600082015250565b7f4d616a6f7269747920766f746520697320726571756972656420746f2070726f60008201527f63656564207061796d656e742e00000000000000000000000000000000000000602082015250565b7f4f6e6c79206d616e616765722063616e2063616c6c20746869732066756e637460008201527f696f6e0000000000000000000000000000000000000000000000000000000000602082015250565b7f4d696e696d756d20636f6e747269627574696f6e206f6620313030207765692060008201527f72657175697265642e0000000000000000000000000000000000000000000000602082015250565b7f596f75206469646e6f7420636f6e7472696275746520666f722074686973207060008201527f726f6a6563742e00000000000000000000000000000000000000000000000000602082015250565b7f526571756972656420416d6f756e74206973206e6f74207261697365642e0000600082015250565b7f796f752063616e6e6f742067657420726566756e64206265666f72652064656160008201527f646c696e65000000000000000000000000000000000000000000000000000000602082015250565b7f596f75206d75737420636f6e7472696275746520746f20766f74650000000000600082015250565b7f596f75206e65656420746f206d616e6761657220746f20726566756e6420746860008201527f65206d6f6e657900000000000000000000000000000000000000000000000000602082015250565b7f54686520726571756573742068617320616c7265616479206265656e20636f6d60008201527f706c657465642e00000000000000000000000000000000000000000000000000602082015250565b6118e981611439565b81146118f457600080fd5b50565b61190081611477565b811461190b57600080fd5b5056fea26469706673582212206bf3fc7a68d24e1f3fa083821ad36479ff5915f99c8fee7b8beb7fd4feb1ea3f64736f6c63430008040033",
  "linkReferences": {},
  "deployedLinkReferences": {}
}