{
  "_format": "hh-sol-artifact-1",
  "contractName": "CrowedFunding",
  "sourceName": "contracts/CrowedFunding.sol",
  "abi": [
    {
      "inputs": [],
      "stateMutability": "nonpayable",
      "type": "constructor"
    },
    {
      "inputs": [
        {
          "internalType": "string",
          "name": "_title",
          "type": "string"
        },
        {
          "internalType": "string",
          "name": "_description",
          "type": "string"
        },
        {
          "internalType": "address payable",
          "name": "_recipient",
          "type": "address"
        },
        {
          "internalType": "uint256",
          "name": "_deadline",
          "type": "uint256"
        },
        {
          "internalType": "uint256",
          "name": "_target",
          "type": "uint256"
        }
      ],
      "name": "createRequest",
      "outputs": [],
      "stateMutability": "nonpayable",
      "type": "function"
    },
    {
      "inputs": [
        {
          "internalType": "uint256",
          "name": "_requestNo",
          "type": "uint256"
        }
      ],
      "name": "getRequestBalance",
      "outputs": [
        {
          "internalType": "uint256",
          "name": "",
          "type": "uint256"
        }
      ],
      "stateMutability": "view",
      "type": "function"
    },
    {
      "inputs": [
        {
          "internalType": "uint256",
          "name": "_requestNo",
          "type": "uint256"
        }
      ],
      "name": "makePayment",
      "outputs": [],
      "stateMutability": "nonpayable",
      "type": "function"
    },
    {
      "inputs": [],
      "name": "manager",
      "outputs": [
        {
          "internalType": "address",
          "name": "",
          "type": "address"
        }
      ],
      "stateMutability": "view",
      "type": "function"
    },
    {
      "inputs": [],
      "name": "minContribution",
      "outputs": [
        {
          "internalType": "uint256",
          "name": "",
          "type": "uint256"
        }
      ],
      "stateMutability": "view",
      "type": "function"
    },
    {
      "inputs": [],
      "name": "noOfRequests",
      "outputs": [
        {
          "internalType": "uint256",
          "name": "",
          "type": "uint256"
        }
      ],
      "stateMutability": "view",
      "type": "function"
    },
    {
      "inputs": [
        {
          "internalType": "uint256",
          "name": "_requestNo",
          "type": "uint256"
        }
      ],
      "name": "refund",
      "outputs": [],
      "stateMutability": "nonpayable",
      "type": "function"
    },
    {
      "inputs": [
        {
          "internalType": "uint256",
          "name": "",
          "type": "uint256"
        }
      ],
      "name": "requests",
      "outputs": [
        {
          "internalType": "string",
          "name": "title",
          "type": "string"
        },
        {
          "internalType": "string",
          "name": "description",
          "type": "string"
        },
        {
          "internalType": "address payable",
          "name": "recipient",
          "type": "address"
        },
        {
          "internalType": "uint256",
          "name": "noOfVoters",
          "type": "uint256"
        },
        {
          "internalType": "uint256",
          "name": "noOfContributer",
          "type": "uint256"
        },
        {
          "internalType": "uint256",
          "name": "raisedAmount",
          "type": "uint256"
        },
        {
          "internalType": "uint256",
          "name": "target",
          "type": "uint256"
        },
        {
          "internalType": "uint256",
          "name": "deadline",
          "type": "uint256"
        },
        {
          "internalType": "bool",
          "name": "completed",
          "type": "bool"
        },
        {
          "internalType": "uint256",
          "name": "requestNo",
          "type": "uint256"
        }
      ],
      "stateMutability": "view",
      "type": "function"
    },
    {
      "inputs": [
        {
          "internalType": "uint256",
          "name": "_requestNo",
          "type": "uint256"
        },
        {
          "internalType": "uint256",
          "name": "_ethAmount",
          "type": "uint256"
        }
      ],
      "name": "sendEth",
      "outputs": [],
      "stateMutability": "payable",
      "type": "function"
    },
    {
      "inputs": [
        {
          "internalType": "uint256",
          "name": "_requestNo",
          "type": "uint256"
        }
      ],
      "name": "voteRequest",
      "outputs": [],
      "stateMutability": "nonpayable",
      "type": "function"
    }
  ],
  "bytecode": "0x608060405234801561001057600080fd5b50336000806101000a81548173ffffffffffffffffffffffffffffffffffffffff021916908373ffffffffffffffffffffffffffffffffffffffff1602179055506064600181905550611981806100686000396000f3fe6080604052600436106100915760003560e01c80635e34461a116100595780635e34461a1461017957806381d12c58146101a2578063aaffadf3146101e8578063c1f11b4c14610213578063c4e4152f1461023e57610091565b8063278ecde114610096578063481c6a75146100bf5780634cb6f4a5146100ea5780635114cb521461011357806352fd4f161461013c575b600080fd5b3480156100a257600080fd5b506100bd60048036038101906100b89190610f13565b61025a565b005b3480156100cb57600080fd5b506100d46104a2565b6040516100e1919061114b565b60405180910390f35b3480156100f657600080fd5b50610111600480360381019061010c9190610f13565b6104c6565b005b34801561011f57600080fd5b5061013a60048036038101906101359190610f13565b61066e565b005b34801561014857600080fd5b50610163600480360381019061015e9190610f13565b61089c565b6040516101709190611350565b60405180910390f35b34801561018557600080fd5b506101a0600480360381019061019b9190610e6c565b6108c1565b005b3480156101ae57600080fd5b506101c960048036038101906101c49190610f13565b610a60565b6040516101df9a99989796959493929190611166565b60405180910390f35b3480156101f457600080fd5b506101fd610bf1565b60405161020a9190611350565b60405180910390f35b34801561021f57600080fd5b50610228610bf7565b6040516102359190611350565b60405180910390f35b61025860048036038101906102539190610f3c565b610bfd565b005b6000600260008381526020019081526020016000209050806007015442116102b7576040517f08c379a00000000000000000000000000000000000000000000000000000000081526004016102ae906112d0565b60405180910390fd5b60008054906101000a900473ffffffffffffffffffffffffffffffffffffffff1673ffffffffffffffffffffffffffffffffffffffff163373ffffffffffffffffffffffffffffffffffffffff1614610345576040517f08c379a000000000000000000000000000000000000000000000000000000000815260040161033c90611310565b60405180910390fd5b600081600b0160003373ffffffffffffffffffffffffffffffffffffffff1673ffffffffffffffffffffffffffffffffffffffff16815260200190815260200160002054116103c9576040517f08c379a00000000000000000000000000000000000000000000000000000000081526004016103c090611290565b60405180910390fd5b60003390508073ffffffffffffffffffffffffffffffffffffffff166108fc83600b0160003373ffffffffffffffffffffffffffffffffffffffff1673ffffffffffffffffffffffffffffffffffffffff168152602001908152602001600020549081150290604051600060405180830381858888f19350505050158015610455573d6000803e3d6000fd5b50600082600b0160003373ffffffffffffffffffffffffffffffffffffffff1673ffffffffffffffffffffffffffffffffffffffff16815260200190815260200160002081905550505050565b60008054906101000a900473ffffffffffffffffffffffffffffffffffffffff1681565b6000600260008381526020019081526020016000209050600081600b0160003373ffffffffffffffffffffffffffffffffffffffff1673ffffffffffffffffffffffffffffffffffffffff1681526020019081526020016000205411610561576040517f08c379a0000000000000000000000000000000000000000000000000000000008152600401610558906112f0565b60405180910390fd5b6000151581600a0160003373ffffffffffffffffffffffffffffffffffffffff1673ffffffffffffffffffffffffffffffffffffffff16815260200190815260200160002060009054906101000a900460ff161515146105f6576040517f08c379a00000000000000000000000000000000000000000000000000000000081526004016105ed90611210565b60405180910390fd5b600181600a0160003373ffffffffffffffffffffffffffffffffffffffff1673ffffffffffffffffffffffffffffffffffffffff16815260200190815260200160002060006101000a81548160ff02191690831515021790555080600301600081548092919061066590611563565b91905055505050565b60008054906101000a900473ffffffffffffffffffffffffffffffffffffffff1673ffffffffffffffffffffffffffffffffffffffff163373ffffffffffffffffffffffffffffffffffffffff16146106fc576040517f08c379a00000000000000000000000000000000000000000000000000000000081526004016106f390611250565b60405180910390fd5b600060026000838152602001908152602001600020905080600601548160050154101561075e576040517f08c379a0000000000000000000000000000000000000000000000000000000008152600401610755906112b0565b60405180910390fd5b600015158160080160009054906101000a900460ff161515146107b6576040517f08c379a00000000000000000000000000000000000000000000000000000000081526004016107ad90611330565b60405180910390fd5b600281600401546107c79190611433565b81600301541161080c576040517f08c379a000000000000000000000000000000000000000000000000000000000815260040161080390611230565b60405180910390fd5b8060020160009054906101000a900473ffffffffffffffffffffffffffffffffffffffff1673ffffffffffffffffffffffffffffffffffffffff166108fc82600601549081150290604051600060405180830381858888f1935050505015801561087a573d6000803e3d6000fd5b5060018160080160006101000a81548160ff0219169083151502179055505050565b6000806002600084815260200190815260200160002090508060050154915050919050565b60008054906101000a900473ffffffffffffffffffffffffffffffffffffffff1673ffffffffffffffffffffffffffffffffffffffff163373ffffffffffffffffffffffffffffffffffffffff161461094f576040517f08c379a000000000000000000000000000000000000000000000000000000000815260040161094690611250565b60405180910390fd5b6000600260006003548152602001908152602001600020905060035481600901819055506003600081548092919061098690611563565b9190505550858160000190805190602001906109a3929190610d37565b50848160010190805190602001906109bc929190610d37565b50838160020160006101000a81548173ffffffffffffffffffffffffffffffffffffffff021916908373ffffffffffffffffffffffffffffffffffffffff1602179055508242610a0c91906113dd565b816007018190555081816006018190555060008160080160006101000a81548160ff021916908315150217905550600081600301819055506000816004018190555060008160050181905550505050505050565b6002602052806000526040600020600091509050806000018054610a8390611500565b80601f0160208091040260200160405190810160405280929190818152602001828054610aaf90611500565b8015610afc5780601f10610ad157610100808354040283529160200191610afc565b820191906000526020600020905b815481529060010190602001808311610adf57829003601f168201915b505050505090806001018054610b1190611500565b80601f0160208091040260200160405190810160405280929190818152602001828054610b3d90611500565b8015610b8a5780601f10610b5f57610100808354040283529160200191610b8a565b820191906000526020600020905b815481529060010190602001808311610b6d57829003601f168201915b5050505050908060020160009054906101000a900473ffffffffffffffffffffffffffffffffffffffff16908060030154908060040154908060050154908060060154908060070154908060080160009054906101000a900460ff1690806009015490508a565b60015481565b60035481565b6001543411610c41576040517f08c379a0000000000000000000000000000000000000000000000000000000008152600401610c3890611270565b60405180910390fd5b6000600260008481526020019081526020016000209050600081600b0160003373ffffffffffffffffffffffffffffffffffffffff1673ffffffffffffffffffffffffffffffffffffffff168152602001908152602001600020541415610cbf576001816004016000828254610cb791906113dd565b925050819055505b8181600b0160003373ffffffffffffffffffffffffffffffffffffffff1673ffffffffffffffffffffffffffffffffffffffff1681526020019081526020016000206000828254610d1091906113dd565b9250508190555081816005016000828254610d2b91906113dd565b92505081905550505050565b828054610d4390611500565b90600052602060002090601f016020900481019282610d655760008555610dac565b82601f10610d7e57805160ff1916838001178555610dac565b82800160010185558215610dac579182015b82811115610dab578251825591602001919060010190610d90565b5b509050610db99190610dbd565b5090565b5b80821115610dd6576000816000905550600101610dbe565b5090565b6000610ded610de884611390565b61136b565b905082815260208101848484011115610e0557600080fd5b610e108482856114be565b509392505050565b600081359050610e278161191d565b92915050565b600082601f830112610e3e57600080fd5b8135610e4e848260208601610dda565b91505092915050565b600081359050610e6681611934565b92915050565b600080600080600060a08688031215610e8457600080fd5b600086013567ffffffffffffffff811115610e9e57600080fd5b610eaa88828901610e2d565b955050602086013567ffffffffffffffff811115610ec757600080fd5b610ed388828901610e2d565b9450506040610ee488828901610e18565b9350506060610ef588828901610e57565b9250506080610f0688828901610e57565b9150509295509295909350565b600060208284031215610f2557600080fd5b6000610f3384828501610e57565b91505092915050565b60008060408385031215610f4f57600080fd5b6000610f5d85828601610e57565b9250506020610f6e85828601610e57565b9150509250929050565b610f8181611476565b82525050565b610f9081611464565b82525050565b610f9f81611488565b82525050565b6000610fb0826113c1565b610fba81856113cc565b9350610fca8185602086016114cd565b610fd381611668565b840191505092915050565b6000610feb6017836113cc565b9150610ff682611679565b602082019050919050565b600061100e602d836113cc565b9150611019826116a2565b604082019050919050565b60006110316023836113cc565b915061103c826116f1565b604082019050919050565b60006110546029836113cc565b915061105f82611740565b604082019050919050565b60006110776027836113cc565b91506110828261178f565b604082019050919050565b600061109a601e836113cc565b91506110a5826117de565b602082019050919050565b60006110bd6025836113cc565b91506110c882611807565b604082019050919050565b60006110e0601b836113cc565b91506110eb82611856565b602082019050919050565b60006111036027836113cc565b915061110e8261187f565b604082019050919050565b60006111266027836113cc565b9150611131826118ce565b604082019050919050565b611145816114b4565b82525050565b60006020820190506111606000830184610f87565b92915050565b6000610140820190508181036000830152611181818d610fa5565b90508181036020830152611195818c610fa5565b90506111a4604083018b610f78565b6111b1606083018a61113c565b6111be608083018961113c565b6111cb60a083018861113c565b6111d860c083018761113c565b6111e560e083018661113c565b6111f3610100830185610f96565b61120161012083018461113c565b9b9a5050505050505050505050565b6000602082019050818103600083015261122981610fde565b9050919050565b6000602082019050818103600083015261124981611001565b9050919050565b6000602082019050818103600083015261126981611024565b9050919050565b6000602082019050818103600083015261128981611047565b9050919050565b600060208201905081810360008301526112a98161106a565b9050919050565b600060208201905081810360008301526112c98161108d565b9050919050565b600060208201905081810360008301526112e9816110b0565b9050919050565b60006020820190508181036000830152611309816110d3565b9050919050565b60006020820190508181036000830152611329816110f6565b9050919050565b6000602082019050818103600083015261134981611119565b9050919050565b6000602082019050611365600083018461113c565b92915050565b6000611375611386565b90506113818282611532565b919050565b6000604051905090565b600067ffffffffffffffff8211156113ab576113aa611639565b5b6113b482611668565b9050602081019050919050565b600081519050919050565b600082825260208201905092915050565b60006113e8826114b4565b91506113f3836114b4565b9250827fffffffffffffffffffffffffffffffffffffffffffffffffffffffffffffffff03821115611428576114276115ac565b5b828201905092915050565b600061143e826114b4565b9150611449836114b4565b925082611459576114586115db565b5b828204905092915050565b600061146f82611494565b9050919050565b600061148182611494565b9050919050565b60008115159050919050565b600073ffffffffffffffffffffffffffffffffffffffff82169050919050565b6000819050919050565b82818337600083830152505050565b60005b838110156114eb5780820151818401526020810190506114d0565b838111156114fa576000848401525b50505050565b6000600282049050600182168061151857607f821691505b6020821081141561152c5761152b61160a565b5b50919050565b61153b82611668565b810181811067ffffffffffffffff8211171561155a57611559611639565b5b80604052505050565b600061156e826114b4565b91507fffffffffffffffffffffffffffffffffffffffffffffffffffffffffffffffff8214156115a1576115a06115ac565b5b600182019050919050565b7f4e487b7100000000000000000000000000000000000000000000000000000000600052601160045260246000fd5b7f4e487b7100000000000000000000000000000000000000000000000000000000600052601260045260246000fd5b7f4e487b7100000000000000000000000000000000000000000000000000000000600052602260045260246000fd5b7f4e487b7100000000000000000000000000000000000000000000000000000000600052604160045260246000fd5b6000601f19601f8301169050919050565b7f596f75206861766520616c726561647920766f7465642e000000000000000000600082015250565b7f4d616a6f7269747920766f746520697320726571756972656420746f2070726f60008201527f63656564207061796d656e742e00000000000000000000000000000000000000602082015250565b7f4f6e6c79206d616e616765722063616e2063616c6c20746869732066756e637460008201527f696f6e0000000000000000000000000000000000000000000000000000000000602082015250565b7f4d696e696d756d20636f6e747269627574696f6e206f6620313030207765692060008201527f72657175697265642e0000000000000000000000000000000000000000000000602082015250565b7f596f75206469646e6f7420636f6e7472696275746520666f722074686973207060008201527f726f6a6563742e00000000000000000000000000000000000000000000000000602082015250565b7f526571756972656420416d6f756e74206973206e6f74207261697365642e0000600082015250565b7f796f752063616e6e6f742067657420726566756e64206265666f72652064656160008201527f646c696e65000000000000000000000000000000000000000000000000000000602082015250565b7f596f75206d75737420636f6e7472696275746520746f20766f74650000000000600082015250565b7f596f75206e65656420746f206d616e6761657220746f20726566756e6420746860008201527f65206d6f6e657900000000000000000000000000000000000000000000000000602082015250565b7f54686520726571756573742068617320616c7265616479206265656e20636f6d60008201527f706c657465642e00000000000000000000000000000000000000000000000000602082015250565b61192681611476565b811461193157600080fd5b50565b61193d816114b4565b811461194857600080fd5b5056fea2646970667358221220f6f04d8a8f27c829e359d4232f0a5c0d18f9e39ce37bfc7623772a655c7be42464736f6c63430008040033",
  "linkReferences": {},
  "deployedLinkReferences": {}
}