{
  "_format": "hh-sol-artifact-1",
  "contractName": "CrowedFunding",
  "sourceName": "contracts/CrowedFunding.sol",
  "abi": [
    {
      "inputs": [],
      "stateMutability": "nonpayable",
      "type": "constructor"
    },
    {
      "inputs": [
        {
          "internalType": "address",
          "name": "",
          "type": "address"
        }
      ],
      "name": "contributer",
      "outputs": [
        {
          "internalType": "uint256",
          "name": "",
          "type": "uint256"
        }
      ],
      "stateMutability": "view",
      "type": "function"
    },
    {
      "inputs": [
        {
          "internalType": "string",
          "name": "_title",
          "type": "string"
        },
        {
          "internalType": "string",
          "name": "_description",
          "type": "string"
        },
        {
          "internalType": "address payable",
          "name": "_recipient",
          "type": "address"
        },
        {
          "internalType": "uint256",
          "name": "_deadline",
          "type": "uint256"
        },
        {
          "internalType": "uint256",
          "name": "_target",
          "type": "uint256"
        }
      ],
      "name": "createRequest",
      "outputs": [],
      "stateMutability": "nonpayable",
      "type": "function"
    },
    {
      "inputs": [],
      "name": "getContractBalance",
      "outputs": [
        {
          "internalType": "uint256",
          "name": "",
          "type": "uint256"
        }
      ],
      "stateMutability": "view",
      "type": "function"
    },
    {
      "inputs": [
        {
          "internalType": "uint256",
          "name": "_requestNo",
          "type": "uint256"
        }
      ],
      "name": "makePayment",
      "outputs": [],
      "stateMutability": "nonpayable",
      "type": "function"
    },
    {
      "inputs": [],
      "name": "manager",
      "outputs": [
        {
          "internalType": "address",
          "name": "",
          "type": "address"
        }
      ],
      "stateMutability": "view",
      "type": "function"
    },
    {
      "inputs": [],
      "name": "minContribution",
      "outputs": [
        {
          "internalType": "uint256",
          "name": "",
          "type": "uint256"
        }
      ],
      "stateMutability": "view",
      "type": "function"
    },
    {
      "inputs": [],
      "name": "noOfContributer",
      "outputs": [
        {
          "internalType": "uint256",
          "name": "",
          "type": "uint256"
        }
      ],
      "stateMutability": "view",
      "type": "function"
    },
    {
      "inputs": [],
      "name": "noOfRequests",
      "outputs": [
        {
          "internalType": "uint256",
          "name": "",
          "type": "uint256"
        }
      ],
      "stateMutability": "view",
      "type": "function"
    },
    {
      "inputs": [],
      "name": "raisedAmount",
      "outputs": [
        {
          "internalType": "uint256",
          "name": "",
          "type": "uint256"
        }
      ],
      "stateMutability": "view",
      "type": "function"
    },
    {
      "inputs": [],
      "name": "refund",
      "outputs": [],
      "stateMutability": "nonpayable",
      "type": "function"
    },
    {
      "inputs": [
        {
          "internalType": "uint256",
          "name": "",
          "type": "uint256"
        }
      ],
      "name": "requests",
      "outputs": [
        {
          "internalType": "string",
          "name": "title",
          "type": "string"
        },
        {
          "internalType": "string",
          "name": "description",
          "type": "string"
        },
        {
          "internalType": "address payable",
          "name": "recipient",
          "type": "address"
        },
        {
          "internalType": "uint256",
          "name": "noOfVoters",
          "type": "uint256"
        },
        {
          "internalType": "uint256",
          "name": "target",
          "type": "uint256"
        },
        {
          "internalType": "uint256",
          "name": "deadline",
          "type": "uint256"
        },
        {
          "internalType": "bool",
          "name": "completed",
          "type": "bool"
        },
        {
          "internalType": "uint256",
          "name": "requestNo",
          "type": "uint256"
        }
      ],
      "stateMutability": "view",
      "type": "function"
    },
    {
      "inputs": [],
      "name": "sendEth",
      "outputs": [],
      "stateMutability": "payable",
      "type": "function"
    },
    {
      "inputs": [
        {
          "internalType": "uint256",
          "name": "_requestNo",
          "type": "uint256"
        }
      ],
      "name": "voteRequest",
      "outputs": [],
      "stateMutability": "nonpayable",
      "type": "function"
    }
  ],
  "bytecode": "0x608060405234801561001057600080fd5b5033600160006101000a81548173ffffffffffffffffffffffffffffffffffffffff021916908373ffffffffffffffffffffffffffffffffffffffff1602179055506064600281905550611842806100696000396000f3fe6080604052600436106100c25760003560e01c80635e34461a1161007f5780639746483e116100595780639746483e14610228578063aaffadf314610265578063c1f11b4c14610290578063c59ee1dc146102bb576100c2565b80635e34461a146101905780636f9fb98a146101b957806381d12c58146101e4576100c2565b806306e99fef146100c757806330d539e1146100d1578063481c6a75146100fc5780634cb6f4a5146101275780635114cb5214610150578063590e1ae314610179575b600080fd5b6100cf6102e6565b005b3480156100dd57600080fd5b506100e66103fc565b6040516100f39190611249565b60405180910390f35b34801561010857600080fd5b50610111610402565b60405161011e9190611082565b60405180910390f35b34801561013357600080fd5b5061014e60048036038101906101499190610ea9565b610428565b005b34801561015c57600080fd5b5061017760048036038101906101729190610ea9565b6105cd565b005b34801561018557600080fd5b5061018e610769565b005b34801561019c57600080fd5b506101b760048036038101906101b29190610e02565b61094b565b005b3480156101c557600080fd5b506101ce610ad8565b6040516101db9190611249565b60405180910390f35b3480156101f057600080fd5b5061020b60048036038101906102069190610ea9565b610ae0565b60405161021f98979695949392919061109d565b60405180910390f35b34801561023457600080fd5b5061024f600480360381019061024a9190610dd9565b610c65565b60405161025c9190611249565b60405180910390f35b34801561027157600080fd5b5061027a610c7d565b6040516102879190611249565b60405180910390f35b34801561029c57600080fd5b506102a5610c83565b6040516102b29190611249565b60405180910390f35b3480156102c757600080fd5b506102d0610c89565b6040516102dd9190611249565b60405180910390f35b600254341161032a576040517f08c379a000000000000000000000000000000000000000000000000000000000815260040161032190611189565b60405180910390fd5b60008060003373ffffffffffffffffffffffffffffffffffffffff1673ffffffffffffffffffffffffffffffffffffffff16815260200190815260200160002054141561038c5760016003600082825461038491906112d6565b925050819055505b346000803373ffffffffffffffffffffffffffffffffffffffff1673ffffffffffffffffffffffffffffffffffffffff16815260200190815260200160002060008282546103da91906112d6565b9250508190555034600460008282546103f391906112d6565b92505081905550565b60035481565b600160009054906101000a900473ffffffffffffffffffffffffffffffffffffffff1681565b60008060003373ffffffffffffffffffffffffffffffffffffffff1673ffffffffffffffffffffffffffffffffffffffff16815260200190815260200160002054116104a9576040517f08c379a00000000000000000000000000000000000000000000000000000000081526004016104a0906111e9565b60405180910390fd5b6000600560008381526020019081526020016000209050600015158160080160003373ffffffffffffffffffffffffffffffffffffffff1673ffffffffffffffffffffffffffffffffffffffff16815260200190815260200160002060009054906101000a900460ff16151514610555576040517f08c379a000000000000000000000000000000000000000000000000000000000815260040161054c90611129565b60405180910390fd5b60018160080160003373ffffffffffffffffffffffffffffffffffffffff1673ffffffffffffffffffffffffffffffffffffffff16815260200190815260200160002060006101000a81548160ff0219169083151502179055508060030160008154809291906105c49061145c565b91905055505050565b60006005600083815260200190815260200160002090508060040154600454101561062d576040517f08c379a0000000000000000000000000000000000000000000000000000000008152600401610624906111c9565b60405180910390fd5b600015158160060160009054906101000a900460ff16151514610685576040517f08c379a000000000000000000000000000000000000000000000000000000000815260040161067c90611229565b60405180910390fd5b6002600354610694919061132c565b8160030154116106d9576040517f08c379a00000000000000000000000000000000000000000000000000000000081526004016106d090611149565b60405180910390fd5b8060020160009054906101000a900473ffffffffffffffffffffffffffffffffffffffff1673ffffffffffffffffffffffffffffffffffffffff166108fc82600401549081150290604051600060405180830381858888f19350505050158015610747573d6000803e3d6000fd5b5060018160060160006101000a81548160ff0219169083151502179055505050565b600160009054906101000a900473ffffffffffffffffffffffffffffffffffffffff1673ffffffffffffffffffffffffffffffffffffffff163373ffffffffffffffffffffffffffffffffffffffff16146107f9576040517f08c379a00000000000000000000000000000000000000000000000000000000081526004016107f090611209565b60405180910390fd5b60008060003373ffffffffffffffffffffffffffffffffffffffff1673ffffffffffffffffffffffffffffffffffffffff168152602001908152602001600020541161087a576040517f08c379a0000000000000000000000000000000000000000000000000000000008152600401610871906111a9565b60405180910390fd5b60003390508073ffffffffffffffffffffffffffffffffffffffff166108fc6000803373ffffffffffffffffffffffffffffffffffffffff1673ffffffffffffffffffffffffffffffffffffffff168152602001908152602001600020549081150290604051600060405180830381858888f19350505050158015610903573d6000803e3d6000fd5b5060008060003373ffffffffffffffffffffffffffffffffffffffff1673ffffffffffffffffffffffffffffffffffffffff1681526020019081526020016000208190555050565b600160009054906101000a900473ffffffffffffffffffffffffffffffffffffffff1673ffffffffffffffffffffffffffffffffffffffff163373ffffffffffffffffffffffffffffffffffffffff16146109db576040517f08c379a00000000000000000000000000000000000000000000000000000000081526004016109d290611169565b60405180910390fd5b60006005600060065481526020019081526020016000209050600654816007018190555060066000815480929190610a129061145c565b919050555085816000019080519060200190610a2f929190610c8f565b5084816001019080519060200190610a48929190610c8f565b50838160020160006101000a81548173ffffffffffffffffffffffffffffffffffffffff021916908373ffffffffffffffffffffffffffffffffffffffff1602179055508242610a9891906112d6565b816005018190555081816004018190555060008160060160006101000a81548160ff02191690831515021790555060008160030181905550505050505050565b600047905090565b6005602052806000526040600020600091509050806000018054610b03906113f9565b80601f0160208091040260200160405190810160405280929190818152602001828054610b2f906113f9565b8015610b7c5780601f10610b5157610100808354040283529160200191610b7c565b820191906000526020600020905b815481529060010190602001808311610b5f57829003601f168201915b505050505090806001018054610b91906113f9565b80601f0160208091040260200160405190810160405280929190818152602001828054610bbd906113f9565b8015610c0a5780601f10610bdf57610100808354040283529160200191610c0a565b820191906000526020600020905b815481529060010190602001808311610bed57829003601f168201915b5050505050908060020160009054906101000a900473ffffffffffffffffffffffffffffffffffffffff16908060030154908060040154908060050154908060060160009054906101000a900460ff16908060070154905088565b60006020528060005260406000206000915090505481565b60025481565b60065481565b60045481565b828054610c9b906113f9565b90600052602060002090601f016020900481019282610cbd5760008555610d04565b82601f10610cd657805160ff1916838001178555610d04565b82800160010185558215610d04579182015b82811115610d03578251825591602001919060010190610ce8565b5b509050610d119190610d15565b5090565b5b80821115610d2e576000816000905550600101610d16565b5090565b6000610d45610d4084611289565b611264565b905082815260208101848484011115610d5d57600080fd5b610d688482856113b7565b509392505050565b600081359050610d7f816117c7565b92915050565b600081359050610d94816117de565b92915050565b600082601f830112610dab57600080fd5b8135610dbb848260208601610d32565b91505092915050565b600081359050610dd3816117f5565b92915050565b600060208284031215610deb57600080fd5b6000610df984828501610d70565b91505092915050565b600080600080600060a08688031215610e1a57600080fd5b600086013567ffffffffffffffff811115610e3457600080fd5b610e4088828901610d9a565b955050602086013567ffffffffffffffff811115610e5d57600080fd5b610e6988828901610d9a565b9450506040610e7a88828901610d85565b9350506060610e8b88828901610dc4565b9250506080610e9c88828901610dc4565b9150509295509295909350565b600060208284031215610ebb57600080fd5b6000610ec984828501610dc4565b91505092915050565b610edb8161136f565b82525050565b610eea8161135d565b82525050565b610ef981611381565b82525050565b6000610f0a826112ba565b610f1481856112c5565b9350610f248185602086016113c6565b610f2d81611561565b840191505092915050565b6000610f456017836112c5565b9150610f5082611572565b602082019050919050565b6000610f68602d836112c5565b9150610f738261159b565b604082019050919050565b6000610f8b6023836112c5565b9150610f96826115ea565b604082019050919050565b6000610fae6029836112c5565b9150610fb982611639565b604082019050919050565b6000610fd16027836112c5565b9150610fdc82611688565b604082019050919050565b6000610ff4601e836112c5565b9150610fff826116d7565b602082019050919050565b6000611017601b836112c5565b915061102282611700565b602082019050919050565b600061103a6027836112c5565b915061104582611729565b604082019050919050565b600061105d6027836112c5565b915061106882611778565b604082019050919050565b61107c816113ad565b82525050565b60006020820190506110976000830184610ee1565b92915050565b60006101008201905081810360008301526110b8818b610eff565b905081810360208301526110cc818a610eff565b90506110db6040830189610ed2565b6110e86060830188611073565b6110f56080830187611073565b61110260a0830186611073565b61110f60c0830185610ef0565b61111c60e0830184611073565b9998505050505050505050565b6000602082019050818103600083015261114281610f38565b9050919050565b6000602082019050818103600083015261116281610f5b565b9050919050565b6000602082019050818103600083015261118281610f7e565b9050919050565b600060208201905081810360008301526111a281610fa1565b9050919050565b600060208201905081810360008301526111c281610fc4565b9050919050565b600060208201905081810360008301526111e281610fe7565b9050919050565b600060208201905081810360008301526112028161100a565b9050919050565b600060208201905081810360008301526112228161102d565b9050919050565b6000602082019050818103600083015261124281611050565b9050919050565b600060208201905061125e6000830184611073565b92915050565b600061126e61127f565b905061127a828261142b565b919050565b6000604051905090565b600067ffffffffffffffff8211156112a4576112a3611532565b5b6112ad82611561565b9050602081019050919050565b600081519050919050565b600082825260208201905092915050565b60006112e1826113ad565b91506112ec836113ad565b9250827fffffffffffffffffffffffffffffffffffffffffffffffffffffffffffffffff03821115611321576113206114a5565b5b828201905092915050565b6000611337826113ad565b9150611342836113ad565b925082611352576113516114d4565b5b828204905092915050565b60006113688261138d565b9050919050565b600061137a8261138d565b9050919050565b60008115159050919050565b600073ffffffffffffffffffffffffffffffffffffffff82169050919050565b6000819050919050565b82818337600083830152505050565b60005b838110156113e45780820151818401526020810190506113c9565b838111156113f3576000848401525b50505050565b6000600282049050600182168061141157607f821691505b6020821081141561142557611424611503565b5b50919050565b61143482611561565b810181811067ffffffffffffffff8211171561145357611452611532565b5b80604052505050565b6000611467826113ad565b91507fffffffffffffffffffffffffffffffffffffffffffffffffffffffffffffffff82141561149a576114996114a5565b5b600182019050919050565b7f4e487b7100000000000000000000000000000000000000000000000000000000600052601160045260246000fd5b7f4e487b7100000000000000000000000000000000000000000000000000000000600052601260045260246000fd5b7f4e487b7100000000000000000000000000000000000000000000000000000000600052602260045260246000fd5b7f4e487b7100000000000000000000000000000000000000000000000000000000600052604160045260246000fd5b6000601f19601f8301169050919050565b7f596f75206861766520616c726561647920766f7465642e000000000000000000600082015250565b7f4d616a6f7269747920766f746520697320726571756972656420746f2070726f60008201527f63656564207061796d656e742e00000000000000000000000000000000000000602082015250565b7f4f6e6c79206d616e616765722063616e2063616c6c20746869732066756e637460008201527f696f6e0000000000000000000000000000000000000000000000000000000000602082015250565b7f4d696e696d756d20636f6e747269627574696f6e206f6620313030207765692060008201527f72657175697265642e0000000000000000000000000000000000000000000000602082015250565b7f596f75206469646e6f7420636f6e7472696275746520666f722074686973207060008201527f726f6a6563742e00000000000000000000000000000000000000000000000000602082015250565b7f526571756972656420416d6f756e74206973206e6f74207261697365642e0000600082015250565b7f596f75206d75737420636f6e7472696275746520746f20766f74650000000000600082015250565b7f596f75206e65656420746f206d616e6761657220746f20726566756e6420746860008201527f65206d6f6e657900000000000000000000000000000000000000000000000000602082015250565b7f54686520726571756573742068617320616c7265616479206265656e20636f6d60008201527f706c657465642e00000000000000000000000000000000000000000000000000602082015250565b6117d08161135d565b81146117db57600080fd5b50565b6117e78161136f565b81146117f257600080fd5b50565b6117fe816113ad565b811461180957600080fd5b5056fea26469706673582212205b7a74dbc4f7f877820c1f8ca3b1a5af566576491b84d63d17ca82fe27280e7164736f6c63430008040033",
  "linkReferences": {},
  "deployedLinkReferences": {}
}